{
  "address": "0x5FbDB2315678afecb367f032d93F642f64180aa3",
  "abi": [
    {
      "inputs": [
        {
          "internalType": "string",
          "name": "_eventDescription",
          "type": "string"
        },
        {
          "internalType": "uint256",
          "name": "_commitmentDuration",
          "type": "uint256"
        },
        {
          "internalType": "uint256",
          "name": "_eventDuration",
          "type": "uint256"
        }
      ],
      "stateMutability": "nonpayable",
      "type": "constructor"
    },
    {
      "inputs": [],
      "name": "HandlesAlreadySavedForRequestID",
      "type": "error"
    },
    {
      "inputs": [],
      "name": "InvalidKMSSignatures",
      "type": "error"
    },
    {
      "inputs": [],
      "name": "NoHandleFoundForRequestID",
      "type": "error"
    },
    {
      "anonymous": false,
      "inputs": [],
      "name": "AggregationStarted",
      "type": "event"
    },
    {
      "anonymous": false,
      "inputs": [
        {
          "indexed": true,
          "internalType": "uint256",
          "name": "requestID",
          "type": "uint256"
        }
      ],
      "name": "DecryptionFulfilled",
      "type": "event"
    },
    {
      "anonymous": false,
      "inputs": [
        {
          "indexed": false,
          "internalType": "uint256",
          "name": "requestId",
          "type": "uint256"
        }
      ],
      "name": "DecryptionRequested",
      "type": "event"
    },
    {
      "anonymous": false,
      "inputs": [
        {
          "indexed": false,
          "internalType": "string",
          "name": "eventDescription",
          "type": "string"
        },
        {
          "indexed": false,
          "internalType": "uint256",
          "name": "commitmentDeadline",
          "type": "uint256"
        },
        {
          "indexed": false,
          "internalType": "uint256",
          "name": "eventDeadline",
          "type": "uint256"
        }
      ],
      "name": "MarketCreated",
      "type": "event"
    },
    {
      "anonymous": false,
      "inputs": [
        {
          "indexed": false,
          "internalType": "bool",
          "name": "outcome",
          "type": "bool"
        }
      ],
      "name": "MarketSettled",
      "type": "event"
    },
    {
      "anonymous": false,
      "inputs": [
        {
          "indexed": false,
          "internalType": "enum BlindOracle.Phase",
          "name": "newPhase",
          "type": "uint8"
        }
      ],
      "name": "PhaseTransitioned",
      "type": "event"
    },
    {
      "anonymous": false,
      "inputs": [
        {
          "indexed": true,
          "internalType": "address",
          "name": "user",
          "type": "address"
        }
      ],
      "name": "PredictionCommitted",
      "type": "event"
    },
    {
      "anonymous": false,
      "inputs": [
        {
          "indexed": false,
          "internalType": "uint256",
          "name": "totalYes",
          "type": "uint256"
        },
        {
          "indexed": false,
          "internalType": "uint256",
          "name": "totalNo",
          "type": "uint256"
        },
        {
          "indexed": false,
          "internalType": "uint256",
          "name": "initialPrice",
          "type": "uint256"
        }
      ],
      "name": "PriceDiscovered",
      "type": "event"
    },
    {
      "anonymous": false,
      "inputs": [
        {
          "indexed": true,
          "internalType": "address",
          "name": "user",
          "type": "address"
        },
        {
          "indexed": false,
          "internalType": "uint256",
          "name": "amount",
          "type": "uint256"
        }
      ],
      "name": "RewardsClaimed",
      "type": "event"
    },
    {
      "anonymous": false,
      "inputs": [
        {
          "indexed": true,
          "internalType": "address",
          "name": "user",
          "type": "address"
        },
        {
          "indexed": false,
          "internalType": "uint256",
          "name": "requestId",
          "type": "uint256"
        }
      ],
      "name": "TokenAllocationRequested",
      "type": "event"
    },
    {
      "anonymous": false,
      "inputs": [
        {
          "indexed": true,
          "internalType": "address",
          "name": "user",
          "type": "address"
        },
        {
          "indexed": false,
          "internalType": "bool",
          "name": "isYes",
          "type": "bool"
        },
        {
          "indexed": false,
          "internalType": "uint256",
          "name": "amount",
          "type": "uint256"
        }
      ],
      "name": "TokensAllocated",
      "type": "event"
    },
    {
      "anonymous": false,
      "inputs": [
        {
          "indexed": true,
          "internalType": "address",
          "name": "user",
          "type": "address"
        },
        {
          "indexed": false,
          "internalType": "bool",
          "name": "isYes",
          "type": "bool"
        },
        {
          "indexed": false,
          "internalType": "uint256",
          "name": "amount",
          "type": "uint256"
        },
        {
          "indexed": false,
          "internalType": "uint256",
          "name": "cost",
          "type": "uint256"
        }
      ],
      "name": "TokensPurchased",
      "type": "event"
    },
    {
      "anonymous": false,
      "inputs": [
        {
          "indexed": true,
          "internalType": "address",
          "name": "user",
          "type": "address"
        },
        {
          "indexed": false,
          "internalType": "bool",
          "name": "isYes",
          "type": "bool"
        },
        {
          "indexed": false,
          "internalType": "uint256",
          "name": "amount",
          "type": "uint256"
        },
        {
          "indexed": false,
          "internalType": "uint256",
          "name": "payout",
          "type": "uint256"
        }
      ],
      "name": "TokensSold",
      "type": "event"
    },
    {
      "inputs": [],
      "name": "K_MULTIPLIER",
      "outputs": [
        {
          "internalType": "uint256",
          "name": "",
          "type": "uint256"
        }
      ],
      "stateMutability": "view",
      "type": "function"
    },
    {
      "inputs": [],
      "name": "aggregateBets",
      "outputs": [],
      "stateMutability": "nonpayable",
      "type": "function"
    },
    {
      "inputs": [],
      "name": "allocatedCount",
      "outputs": [
        {
          "internalType": "uint256",
          "name": "",
          "type": "uint256"
        }
      ],
      "stateMutability": "view",
      "type": "function"
    },
    {
      "inputs": [
        {
          "internalType": "uint256",
          "name": "minTokensOut",
          "type": "uint256"
        }
      ],
      "name": "buyNoTokens",
      "outputs": [],
      "stateMutability": "payable",
      "type": "function"
    },
    {
      "inputs": [
        {
          "internalType": "uint256",
          "name": "minTokensOut",
          "type": "uint256"
        }
      ],
      "name": "buyYesTokens",
      "outputs": [],
      "stateMutability": "payable",
      "type": "function"
    },
    {
      "inputs": [
        {
          "internalType": "uint256",
          "name": "requestId",
          "type": "uint256"
        },
        {
          "internalType": "bytes",
          "name": "cleartexts",
          "type": "bytes"
        },
        {
          "internalType": "bytes",
          "name": "decryptionProof",
          "type": "bytes"
        }
      ],
      "name": "callbackAggregateDecryption",
      "outputs": [],
      "stateMutability": "nonpayable",
      "type": "function"
    },
    {
      "inputs": [
        {
          "internalType": "uint256",
          "name": "requestId",
          "type": "uint256"
        },
        {
          "internalType": "bytes",
          "name": "cleartexts",
          "type": "bytes"
        },
        {
          "internalType": "bytes",
          "name": "decryptionProof",
          "type": "bytes"
        }
      ],
      "name": "callbackTokenAllocation",
      "outputs": [],
      "stateMutability": "nonpayable",
      "type": "function"
    },
    {
      "inputs": [],
      "name": "claimRewards",
      "outputs": [],
      "stateMutability": "nonpayable",
      "type": "function"
    },
    {
      "inputs": [
        {
          "internalType": "externalEuint8",
          "name": "encryptedPrediction",
          "type": "bytes32"
        },
        {
          "internalType": "externalEuint64",
          "name": "encryptedAmount",
          "type": "bytes32"
        },
        {
          "internalType": "bytes",
          "name": "predictionProof",
          "type": "bytes"
        },
        {
          "internalType": "bytes",
          "name": "amountProof",
          "type": "bytes"
        }
      ],
      "name": "commitPrediction",
      "outputs": [],
      "stateMutability": "payable",
      "type": "function"
    },
    {
      "inputs": [],
      "name": "commitmentDeadline",
      "outputs": [
        {
          "internalType": "uint256",
          "name": "",
          "type": "uint256"
        }
      ],
      "stateMutability": "view",
      "type": "function"
    },
    {
      "inputs": [],
      "name": "currentPhase",
      "outputs": [
        {
          "internalType": "enum BlindOracle.Phase",
          "name": "",
          "type": "uint8"
        }
      ],
      "stateMutability": "view",
      "type": "function"
    },
    {
      "inputs": [],
      "name": "eventDeadline",
      "outputs": [
        {
          "internalType": "uint256",
          "name": "",
          "type": "uint256"
        }
      ],
      "stateMutability": "view",
      "type": "function"
    },
    {
      "inputs": [],
      "name": "eventDescription",
      "outputs": [
        {
          "internalType": "string",
          "name": "",
          "type": "string"
        }
      ],
      "stateMutability": "view",
      "type": "function"
    },
    {
      "inputs": [],
      "name": "finalOutcome",
      "outputs": [
        {
          "internalType": "bool",
          "name": "",
          "type": "bool"
        }
      ],
      "stateMutability": "view",
      "type": "function"
    },
    {
      "inputs": [],
      "name": "getBalance",
      "outputs": [
        {
          "internalType": "uint256",
          "name": "",
          "type": "uint256"
        }
      ],
      "stateMutability": "view",
      "type": "function"
    },
    {
      "inputs": [],
      "name": "getCurrentPrice",
      "outputs": [
        {
          "internalType": "uint256",
          "name": "price",
          "type": "uint256"
        }
      ],
      "stateMutability": "view",
      "type": "function"
    },
    {
      "inputs": [],
      "name": "getMarketInfo",
      "outputs": [
        {
          "internalType": "enum BlindOracle.Phase",
          "name": "phase",
          "type": "uint8"
        },
        {
          "internalType": "uint256",
          "name": "_commitmentDeadline",
          "type": "uint256"
        },
        {
          "internalType": "uint256",
          "name": "_eventDeadline",
          "type": "uint256"
        },
        {
          "internalType": "uint256",
          "name": "_totalYes",
          "type": "uint256"
        },
        {
          "internalType": "uint256",
          "name": "_totalNo",
          "type": "uint256"
        },
        {
          "internalType": "uint256",
          "name": "_initialPrice",
          "type": "uint256"
        },
        {
          "internalType": "uint256",
          "name": "_currentPrice",
          "type": "uint256"
        },
        {
          "internalType": "bool",
          "name": "_isSettled",
          "type": "bool"
        },
        {
          "internalType": "bool",
          "name": "_finalOutcome",
          "type": "bool"
        }
      ],
      "stateMutability": "view",
      "type": "function"
    },
    {
      "inputs": [],
      "name": "getMyCommitment",
      "outputs": [
        {
          "internalType": "euint8",
          "name": "prediction",
          "type": "bytes32"
        },
        {
          "internalType": "euint64",
          "name": "amount",
          "type": "bytes32"
        }
      ],
      "stateMutability": "view",
      "type": "function"
    },
    {
      "inputs": [
        {
          "internalType": "uint256",
          "name": "ethIn",
          "type": "uint256"
        }
      ],
      "name": "getNoBuyQuote",
      "outputs": [
        {
          "internalType": "uint256",
          "name": "tokensOut",
          "type": "uint256"
        }
      ],
      "stateMutability": "view",
      "type": "function"
    },
    {
      "inputs": [
        {
          "internalType": "uint256",
          "name": "tokenAmount",
          "type": "uint256"
        }
      ],
      "name": "getNoSellQuote",
      "outputs": [
        {
          "internalType": "uint256",
          "name": "ethOut",
          "type": "uint256"
        }
      ],
      "stateMutability": "view",
      "type": "function"
    },
    {
      "inputs": [
        {
          "internalType": "uint256",
          "name": "index",
          "type": "uint256"
        }
      ],
      "name": "getParticipant",
      "outputs": [
        {
          "internalType": "address",
          "name": "",
          "type": "address"
        }
      ],
      "stateMutability": "view",
      "type": "function"
    },
    {
      "inputs": [],
      "name": "getParticipantCount",
      "outputs": [
        {
          "internalType": "uint256",
          "name": "",
          "type": "uint256"
        }
      ],
      "stateMutability": "view",
      "type": "function"
    },
    {
      "inputs": [
        {
          "internalType": "address",
          "name": "user",
          "type": "address"
        }
      ],
      "name": "getUserBalances",
      "outputs": [
        {
          "internalType": "uint256",
          "name": "yesBalance",
          "type": "uint256"
        },
        {
          "internalType": "uint256",
          "name": "noBalance",
          "type": "uint256"
        }
      ],
      "stateMutability": "view",
      "type": "function"
    },
    {
      "inputs": [
        {
          "internalType": "uint256",
          "name": "ethIn",
          "type": "uint256"
        }
      ],
      "name": "getYesBuyQuote",
      "outputs": [
        {
          "internalType": "uint256",
          "name": "tokensOut",
          "type": "uint256"
        }
      ],
      "stateMutability": "view",
      "type": "function"
    },
    {
      "inputs": [
        {
          "internalType": "uint256",
          "name": "tokenAmount",
          "type": "uint256"
        }
      ],
      "name": "getYesSellQuote",
      "outputs": [
        {
          "internalType": "uint256",
          "name": "ethOut",
          "type": "uint256"
        }
      ],
      "stateMutability": "view",
      "type": "function"
    },
    {
      "inputs": [
        {
          "internalType": "address",
          "name": "",
          "type": "address"
        }
      ],
      "name": "hasClaimed",
      "outputs": [
        {
          "internalType": "bool",
          "name": "",
          "type": "bool"
        }
      ],
      "stateMutability": "view",
      "type": "function"
    },
    {
      "inputs": [
        {
          "internalType": "address",
          "name": "user",
          "type": "address"
        }
      ],
      "name": "hasTokensAllocated",
      "outputs": [
        {
          "internalType": "bool",
          "name": "",
          "type": "bool"
        }
      ],
      "stateMutability": "view",
      "type": "function"
    },
    {
      "inputs": [
        {
          "internalType": "address",
          "name": "user",
          "type": "address"
        }
      ],
      "name": "hasUserCommitted",
      "outputs": [
        {
          "internalType": "bool",
          "name": "",
          "type": "bool"
        }
      ],
      "stateMutability": "view",
      "type": "function"
    },
    {
      "inputs": [],
      "name": "initialPrice",
      "outputs": [
        {
          "internalType": "uint256",
          "name": "",
          "type": "uint256"
        }
      ],
      "stateMutability": "view",
      "type": "function"
    },
    {
      "inputs": [],
      "name": "isAggregated",
      "outputs": [
        {
          "internalType": "bool",
          "name": "",
          "type": "bool"
        }
      ],
      "stateMutability": "view",
      "type": "function"
    },
    {
      "inputs": [],
      "name": "isSettled",
      "outputs": [
        {
          "internalType": "bool",
          "name": "",
          "type": "bool"
        }
      ],
      "stateMutability": "view",
      "type": "function"
    },
    {
      "inputs": [
        {
          "internalType": "address",
          "name": "",
          "type": "address"
        }
      ],
      "name": "noTokenBalance",
      "outputs": [
        {
          "internalType": "uint256",
          "name": "",
          "type": "uint256"
        }
      ],
      "stateMutability": "view",
      "type": "function"
    },
    {
      "inputs": [],
      "name": "owner",
      "outputs": [
        {
          "internalType": "address",
          "name": "",
          "type": "address"
        }
      ],
      "stateMutability": "view",
      "type": "function"
    },
    {
      "inputs": [
        {
          "internalType": "uint256",
          "name": "",
          "type": "uint256"
        }
      ],
      "name": "participants",
      "outputs": [
        {
          "internalType": "address",
          "name": "",
          "type": "address"
        }
      ],
      "stateMutability": "view",
      "type": "function"
    },
    {
      "inputs": [],
      "name": "protocolId",
      "outputs": [
        {
          "internalType": "uint256",
          "name": "",
          "type": "uint256"
        }
      ],
      "stateMutability": "pure",
      "type": "function"
    },
    {
      "inputs": [],
      "name": "requestAggregateDecryption",
      "outputs": [],
      "stateMutability": "nonpayable",
      "type": "function"
    },
    {
      "inputs": [],
      "name": "requestTokenAllocation",
      "outputs": [],
      "stateMutability": "nonpayable",
      "type": "function"
    },
    {
      "inputs": [],
      "name": "reserveNo",
      "outputs": [
        {
          "internalType": "uint256",
          "name": "",
          "type": "uint256"
        }
      ],
      "stateMutability": "view",
      "type": "function"
    },
    {
      "inputs": [],
      "name": "reserveYes",
      "outputs": [
        {
          "internalType": "uint256",
          "name": "",
          "type": "uint256"
        }
      ],
      "stateMutability": "view",
      "type": "function"
    },
    {
      "inputs": [
        {
          "internalType": "uint256",
          "name": "tokenAmount",
          "type": "uint256"
        },
        {
          "internalType": "uint256",
          "name": "minEthOut",
          "type": "uint256"
        }
      ],
      "name": "sellNoTokens",
      "outputs": [],
      "stateMutability": "nonpayable",
      "type": "function"
    },
    {
      "inputs": [
        {
          "internalType": "uint256",
          "name": "tokenAmount",
          "type": "uint256"
        },
        {
          "internalType": "uint256",
          "name": "minEthOut",
          "type": "uint256"
        }
      ],
      "name": "sellYesTokens",
      "outputs": [],
      "stateMutability": "nonpayable",
      "type": "function"
    },
    {
      "inputs": [
        {
          "internalType": "bool",
          "name": "outcome",
          "type": "bool"
        }
      ],
      "name": "settleMarket",
      "outputs": [],
      "stateMutability": "nonpayable",
      "type": "function"
    },
    {
      "inputs": [],
      "name": "totalNoAmount",
      "outputs": [
        {
          "internalType": "uint256",
          "name": "",
          "type": "uint256"
        }
      ],
      "stateMutability": "view",
      "type": "function"
    },
    {
      "inputs": [],
      "name": "totalYesAmount",
      "outputs": [
        {
          "internalType": "uint256",
          "name": "",
          "type": "uint256"
        }
      ],
      "stateMutability": "view",
      "type": "function"
    },
    {
      "inputs": [
        {
          "internalType": "address",
          "name": "",
          "type": "address"
        }
      ],
      "name": "yesTokenBalance",
      "outputs": [
        {
          "internalType": "uint256",
          "name": "",
          "type": "uint256"
        }
      ],
      "stateMutability": "view",
      "type": "function"
    }
  ],
  "transactionHash": "0xc753759f3e5aac230be68ea614e058a15d7092e732a96468cb0544630e8eca1c",
  "args": [
    "Will Bitcoin reach $100,000 by end of 2025?",
    86400,
    31536000
  ],
  "numDeployments": 1,
  "solcInputHash": "617ec88074b3465c27d893d39d6228ff",
  "bytecode": "0x608060405234801561000f575f5ffd5b50604051613c37380380613c3783398101604081905261002e91610244565b6101a86100cc604080516080810182525f80825260208201819052918101829052606081019190915250604080516080810182527350157cffd6bbfa2dece204a89ec419c23ef5755d815273cd3ab3bd6bcc0c0bf3e27912a92043e817b1cf69602082015273a02cda4ca3a71d7c46997716f4283aa851c2881291810191909152731364cbbf2cdf5032c47d8226a6f6fbd2afcdacac606082015290565b80517f9e7b61f58c47dc699ac88507c4f5bb9f121c03808c5676a8078fe583e464970080546001600160a01b03199081166001600160a01b039384161790915560208301517f9e7b61f58c47dc699ac88507c4f5bb9f121c03808c5676a8078fe583e46497018054831691841691909117905560408301517f9e7b61f58c47dc699ac88507c4f5bb9f121c03808c5676a8078fe583e46497028054831691841691909117905560608301517f9e7b61f58c47dc699ac88507c4f5bb9f121c03808c5676a8078fe583e46497038054909216921691909117905550565b5f80546001600160a81b031916336101000260ff191617905560016101cd8482610387565b506101d88242610441565b6002556101e58142610441565b60038190556002546040517f88e25d3fbb0b1cbd1fb440faec67b4386ef912082f8d22116b252800c1c6b7e592610220928792909190610466565b60405180910390a15050506104a9565b634e487b7160e01b5f52604160045260245ffd5b5f5f5f60608486031215610256575f5ffd5b83516001600160401b0381111561026b575f5ffd5b8401601f8101861361027b575f5ffd5b80516001600160401b0381111561029457610294610230565b604051601f8201601f19908116603f011681016001600160401b03811182821017156102c2576102c2610230565b6040528181528282016020018810156102d9575f5ffd5b8160208401602083015e5f6020928201830152908601516040909601519097959650949350505050565b600181811c9082168061031757607f821691505b60208210810361033557634e487b7160e01b5f52602260045260245ffd5b50919050565b601f82111561038257805f5260205f20601f840160051c810160208510156103605750805b601f840160051c820191505b8181101561037f575f815560010161036c565b50505b505050565b81516001600160401b038111156103a0576103a0610230565b6103b4816103ae8454610303565b8461033b565b6020601f8211600181146103e6575f83156103cf5750848201515b5f19600385901b1c1916600184901b17845561037f565b5f84815260208120601f198516915b8281101561041557878501518255602094850194600190920191016103f5565b508482101561043257868401515f19600387901b60f8161c191681555b50505050600190811b01905550565b8082018082111561046057634e487b7160e01b5f52601160045260245ffd5b92915050565b606081525f84518060608401528060208701608085015e5f608082850101526080601f19601f830116840101915050836020830152826040830152949350505050565b613781806104b65f395ff3fe6080604052600436106102e2575f3560e01c80636f00a13c11610186578063ac427a26116100dc578063cfe3a88111610087578063eb91d37e11610062578063eb91d37e146107da578063f57de2c3146107ee578063fe253ebd1461080d575f5ffd5b8063cfe3a88114610793578063d442747e146107a7578063da1f12ab146107c6575f5ffd5b8063cbdd8691116100b7578063cbdd8691146104de578063cce3ec5614610766578063cfe0bf8b1461077f575f5ffd5b8063ac427a26146106f9578063ad60572914610718578063c78155b51461072c575f5ffd5b80638fa990e31161013c5780639434571b116101175780639434571b1461066f578063a8c0795414610690578063abd3f612146106a3575f5ffd5b80638fa990e3146106455780638fb182aa1461065a57806392021ed314610314575f5ffd5b806373b2e80e1161016c57806373b2e80e146105df578063776377b41461060d5780638da5cb5b14610622575f5ffd5b80636f00a13c146105ab5780636ff2f1c4146105ca575f5ffd5b80634e97edf11161023b5780636234e1de116101f15780636b3d9207116101cc5780636b3d9207146105645780636be1504a146105795780636e97016c1461058c575f5ffd5b80636234e1de1461051257806362552023146105265780636635431614610539575f5ffd5b806353aaf54c1161022157806353aaf54c146104c95780635d55fe89146104de5780635eb36d55146104fd575f5ffd5b80634e97edf11461045f5780634f1b10e11461048a575f5ffd5b806323341a051161029b578063372500ab11610276578063372500ab14610410578063373d1ada14610426578063404002a614610441575f5ffd5b806323341a051461039f5780633270bb5b146103c857806335c1d349146103f1575f5ffd5b806312065fe0116102cb57806312065fe0146103415780631b9db2ef146103535780631d0806ae1461038a575f5ffd5b8063055ad42e146102e657806311110ca614610314575b5f5ffd5b3480156102f1575f5ffd5b505f546102fe9060ff1681565b60405161030b919061319d565b60405180910390f35b34801561031f575f5ffd5b5061033361032e3660046131ab565b610821565b60405190815260200161030b565b34801561034c575f5ffd5b5047610333565b34801561035e575f5ffd5b5061037261036d3660046131ab565b61088f565b6040516001600160a01b03909116815260200161030b565b348015610395575f5ffd5b50610333600c5481565b3480156103aa575f5ffd5b506103b3610914565b60405161030b999897969594939291906131c2565b3480156103d3575f5ffd5b506011546103e19060ff1681565b604051901515815260200161030b565b3480156103fc575f5ffd5b5061037261040b3660046131ab565b6109d5565b34801561041b575f5ffd5b506104246109fd565b005b348015610431575f5ffd5b50610333670de0b6b3a764000081565b34801561044c575f5ffd5b506011546103e190610100900460ff1681565b34801561046a575f5ffd5b50610333610479366004613213565b600e6020525f908152604090205481565b348015610495575f5ffd5b506103e16104a4366004613213565b6001600160a01b03165f90815260046020526040902060020154610100900460ff1690565b3480156104d4575f5ffd5b5061033360105481565b3480156104e9575f5ffd5b506103336104f83660046131ab565b610caf565b348015610508575f5ffd5b50610333600a5481565b34801561051d575f5ffd5b50610424610d14565b61042461053436600461327e565b610f0f565b348015610544575f5ffd5b50610333610553366004613213565b600d6020525f908152604090205481565b34801561056f575f5ffd5b5061033360035481565b6104246105873660046131ab565b611205565b348015610597575f5ffd5b506104246105a6366004613300565b6113db565b3480156105b6575f5ffd5b506104246105c53660046133bf565b6116b7565b3480156105d5575f5ffd5b5061033360145481565b3480156105ea575f5ffd5b506103e16105f9366004613213565b60126020525f908152604090205460ff1681565b348015610618575f5ffd5b50610333600b5481565b34801561062d575f5ffd5b505f546103729061010090046001600160a01b031681565b348015610650575f5ffd5b5061033360025481565b348015610665575f5ffd5b50610333600f5481565b34801561067a575f5ffd5b5061068361195e565b60405161030b919061345a565b61042461069e3660046131ab565b6119ea565b3480156106ae575f5ffd5b506106e46106bd366004613213565b6001600160a01b03165f908152600d6020908152604080832054600e909252909120549091565b6040805192835260208301919091520161030b565b348015610704575f5ffd5b5061042461071336600461347c565b611bc1565b348015610723575f5ffd5b50600554610333565b348015610737575f5ffd5b506103e1610746366004613213565b6001600160a01b03165f9081526004602052604090206002015460ff1690565b348015610771575f5ffd5b506009546103e19060ff1681565b34801561078a575f5ffd5b506106e4611d56565b34801561079e575f5ffd5b50610424611dd5565b3480156107b2575f5ffd5b506104246107c13660046133bf565b611fcc565b3480156107d1575f5ffd5b50612711610333565b3480156107e5575f5ffd5b506103336121d2565b3480156107f9575f5ffd5b50610424610808366004613300565b612240565b348015610818575f5ffd5b5061042461250d565b5f60035f5460ff16600481111561083a5761083a613175565b101561084757505f919050565b5f601054600f5461085891906134ab565b90505f83600f5461086991906134c2565b90505f61087682846134d5565b90508060105461088691906134f4565b95945050505050565b6005545f9082106108e75760405162461bcd60e51b815260206004820152601360248201527f496e646578206f7574206f6620626f756e64730000000000000000000000000060448201526064015b60405180910390fd5b600582815481106108fa576108fa613507565b5f918252602090912001546001600160a01b031692915050565b5f80808080808080808060035f5460ff16600481111561093657610936613175565b1061097a575f601054600f5461094c91906134c2565b905080156109785780600f54670de0b6b3a764000061096b91906134ab565b61097591906134d5565b91505b505b5f5f9054906101000a900460ff16600254600354600a54600b54600c548660115f9054906101000a900460ff16601160019054906101000a900460ff1699509950995099509950995099509950995050909192939495969798565b600581815481106109e4575f80fd5b5f918252602090912001546001600160a01b0316905081565b6004805f5460ff166004811115610a1657610a16613175565b14610a505760405162461bcd60e51b815260206004820181905260248201525f5160206137355f395f51905f5260448201526064016108de565b335f9081526012602052604090205460ff1615610aaf5760405162461bcd60e51b815260206004820152601760248201527f416c726561647920636c61696d6564207265776172647300000000000000000060448201526064016108de565b335f9081526004602052604090206002015460ff16610b105760405162461bcd60e51b815260206004820152601360248201527f446964206e6f742070617274696369706174650000000000000000000000000060448201526064016108de565b6011545f90610100900460ff16610b3557335f908152600e6020526040902054610b45565b335f908152600d60205260409020545b90505f8111610b965760405162461bcd60e51b815260206004820152601160248201527f4e6f2077696e6e696e6720746f6b656e7300000000000000000000000000000060448201526064016108de565b335f908152601260205260408120805460ff19166001179055601154610100900460ff16610bc657601054610bca565b600f545b9050475f82610bd983866134ab565b610be391906134d5565b6040519091505f90339083908381818185875af1925050503d805f8114610c25576040519150601f19603f3d011682016040523d82523d5f602084013e610c2a565b606091505b5050905080610c715760405162461bcd60e51b8152602060048201526013602482015272115512081d1c985b9cd9995c8819985a5b1959606a1b60448201526064016108de565b60405182815233907ffc30cddea38e2bf4d6ea7d3f9ed3b6ad7f176419f4963bd81318067a4aee73fe906020015b60405180910390a2505050505050565b5f60035f5460ff166004811115610cc857610cc8613175565b1015610cd557505f919050565b5f601054600f54610ce691906134ab565b90505f83601054610cf791906134c2565b90505f610d0482846134d5565b905080600f5461088691906134f4565b5f5461010090046001600160a01b03163314610d725760405162461bcd60e51b815260206004820152601860248201527f4f6e6c79206f776e65722063616e2063616c6c2074686973000000000000000060448201526064016108de565b6001805f5460ff166004811115610d8b57610d8b613175565b14610dc55760405162461bcd60e51b815260206004820181905260248201525f5160206137355f395f51905f5260448201526064016108de565b60095460ff16610e175760405162461bcd60e51b815260206004820152601760248201527f42657473206e6f7420616767726567617465642079657400000000000000000060448201526064016108de565b6040805160028082526060820183525f92602083019080368337019050509050610e4060065490565b815f81518110610e5257610e52613507565b602090810291909101015260075481600181518110610e7357610e73613507565b6020908102919091010152610e8f81636a213a3f60e11b6127de565b60088190555f805460ff191660021790556040519081527f692f7082be436727c1eb360ad57f2116cf8e2d16001837c08adafb7e0fa2f8f99060200160405180910390a17fc847aefe15b8c362079c92928a3e12ebd56db092163d17840586ffe616ce7d346002604051610f03919061319d565b60405180910390a15050565b5f805f5460ff166004811115610f2757610f27613175565b14610f615760405162461bcd60e51b815260206004820181905260248201525f5160206137355f395f51905f5260448201526064016108de565b6002544210610fb25760405162461bcd60e51b815260206004820152601b60248201527f436f6d6d69746d656e7420706572696f642068617320656e646564000000000060448201526064016108de565b335f9081526004602052604090206002015460ff16156110145760405162461bcd60e51b815260206004820152601160248201527f416c726561647920636f6d6d697474656400000000000000000000000000000060448201526064016108de565b5f34116110635760405162461bcd60e51b815260206004820152601d60248201527f4d7573742073656e6420455448207769746820636f6d6d69746d656e7400000060448201526064016108de565b5f6110a38887878080601f0160208091040260200160405190810160405280939291908181526020018383808284375f920191909152506127f192505050565b90505f6110e58886868080601f0160208091040260200160405190810160405280939291908181526020018383808284375f9201919091525061280492505050565b60408051608081018252848152602080820184815260018385018181525f60608601818152338083526004909652968120955186559251858301555160029094018054955115156101000261ff00199515159590951661ffff1990961695909517939093179093556005805492830181559092527f036b6384b5eca791c62761152d0c79bb0604c104a5fb6f4eb0703f3154bb3db00180547fffffffffffffffffffffffff000000000000000000000000000000000000000016909117905590506111af82612811565b506111ba8233612820565b506111c481612811565b506111cf8133612820565b5060405133907fc6521345b8fe191747b17c6e542ec3d7911aa2dad5ad5e754794ec8cad9802d5905f90a2505050505050505050565b6003805f5460ff16600481111561121e5761121e613175565b146112585760405162461bcd60e51b815260206004820181905260248201525f5160206137355f395f51905f5260448201526064016108de565b5f34116112975760405162461bcd60e51b815260206004820152600d60248201526c09aeae6e840e6cadcc8408aa89609b1b60448201526064016108de565b5f601054600f546112a891906134ab565b90505f34600f546112b991906134c2565b90505f6112c682846134d5565b90505f816010546112d791906134f4565b90508581101561131d5760405162461bcd60e51b81526020600482015260116024820152700a6d8d2e0e0c2ceca40e8dede40d0d2ced607b1b60448201526064016108de565b5f811161136c5760405162461bcd60e51b815260206004820152601a60248201527f496e73756666696369656e74206f757470757420616d6f756e7400000000000060448201526064016108de565b600f8390556010829055335f908152600e6020526040812080548392906113949084906134c2565b9091555050604080515f815260208101839052349181019190915233907f54b3dbdef11dba5c2d31f70f348a70ca0f7fc83fce4f7f1db955a9df2f63934c90606001610c9f565b6003805f5460ff1660048111156113f4576113f4613175565b1461142e5760405162461bcd60e51b815260206004820181905260248201525f5160206137355f395f51905f5260448201526064016108de565b5f831161147d5760405162461bcd60e51b815260206004820152601960248201527f4d7573742073656c6c20706f73697469766520616d6f756e740000000000000060448201526064016108de565b335f908152600d60205260409020548311156114db5760405162461bcd60e51b815260206004820152601760248201527f496e73756666696369656e742059455320746f6b656e7300000000000000000060448201526064016108de565b5f601054600f546114ec91906134ab565b90505f84600f546114fd91906134c2565b90505f61150a82846134d5565b90505f8160105461151b91906134f4565b9050858110156115615760405162461bcd60e51b81526020600482015260116024820152700a6d8d2e0e0c2ceca40e8dede40d0d2ced607b1b60448201526064016108de565b5f81116115b05760405162461bcd60e51b815260206004820152601a60248201527f496e73756666696369656e74206f757470757420616d6f756e7400000000000060448201526064016108de565b600f8390556010829055335f908152600d6020526040812080548992906115d89084906134f4565b90915550506040515f90339083908381818185875af1925050503d805f811461161c576040519150601f19603f3d011682016040523d82523d5f602084013e611621565b606091505b50509050806116685760405162461bcd60e51b8152602060048201526013602482015272115512081d1c985b9cd9995c8819985a5b1959606a1b60448201526064016108de565b6040805160018152602081018a905290810183905233907f50c9eb3abc4da49e4eaab0135f0099f40cf9f7f992d5a5a7a1ba8e56bcb47cb7906060015b60405180910390a25050505050505050565b60035f5460ff1660048111156116cf576116cf613175565b1461170c5760405162461bcd60e51b815260206004820152600d60248201526c496e76616c696420706861736560981b60448201526064016108de565b611717838383612832565b5f805b60055481101561179a578460135f6005848154811061173b5761173b613507565b5f9182526020808320909101546001600160a01b0316835282019290925260400190205403611792576005818154811061177757611777613507565b5f918252602090912001546001600160a01b0316915061179a565b60010161171a565b506001600160a01b0381166117f15760405162461bcd60e51b815260206004820152601a60248201527f55736572206e6f7420666f756e6420666f72207265717565737400000000000060448201526064016108de565b6001600160a01b0381165f90815260046020526040902060020154610100900460ff16156118615760405162461bcd60e51b815260206004820152601860248201527f546f6b656e7320616c726561647920616c6c6f6361746564000000000000000060448201526064016108de565b5f5f848060200190518101906118779190613537565b915091508160ff166001036118af576001600160a01b0383165f908152600d6020526040902067ffffffffffffffff821690556118d4565b6001600160a01b0383165f908152600e6020526040902067ffffffffffffffff821690555b6001600160a01b0383165f908152600460205260408120600201805461ff00191661010017905560148054916119098361356f565b909155505060408051600160ff851614815267ffffffffffffffff831660208201526001600160a01b038516917ff502ac0e66c7de674a0157d45da778e8306cb412f8351ebdfe1d01292ce0fb459101610c9f565b6001805461196b90613587565b80601f016020809104026020016040519081016040528092919081815260200182805461199790613587565b80156119e25780601f106119b9576101008083540402835291602001916119e2565b820191905f5260205f20905b8154815290600101906020018083116119c557829003601f168201915b505050505081565b6003805f5460ff166004811115611a0357611a03613175565b14611a3d5760405162461bcd60e51b815260206004820181905260248201525f5160206137355f395f51905f5260448201526064016108de565b5f3411611a7c5760405162461bcd60e51b815260206004820152600d60248201526c09aeae6e840e6cadcc8408aa89609b1b60448201526064016108de565b5f601054600f54611a8d91906134ab565b90505f34601054611a9e91906134c2565b90505f611aab82846134d5565b90505f81600f54611abc91906134f4565b905085811015611b025760405162461bcd60e51b81526020600482015260116024820152700a6d8d2e0e0c2ceca40e8dede40d0d2ced607b1b60448201526064016108de565b5f8111611b515760405162461bcd60e51b815260206004820152601a60248201527f496e73756666696369656e74206f757470757420616d6f756e7400000000000060448201526064016108de565b600f8290556010839055335f908152600d602052604081208054839290611b799084906134c2565b9091555050604080516001815260208101839052349181019190915233907f54b3dbdef11dba5c2d31f70f348a70ca0f7fc83fce4f7f1db955a9df2f63934c90606001610c9f565b5f5461010090046001600160a01b03163314611c1f5760405162461bcd60e51b815260206004820152601860248201527f4f6e6c79206f776e65722063616e2063616c6c2074686973000000000000000060448201526064016108de565b6003805f5460ff166004811115611c3857611c38613175565b14611c725760405162461bcd60e51b815260206004820181905260248201525f5160206137355f395f51905f5260448201526064016108de565b600354421015611cc45760405162461bcd60e51b815260206004820152601a60248201527f4576656e7420686173206e6f74206f636375727265642079657400000000000060448201526064016108de565b6011805460ff198415156101008102821661ffff19909316929092176001179092555f8054600493169290921790915560408051918252517fdb2a328be8e4e74480b048bb0dbd0dfc5edf85cfbc82d320c173a92d390a1ef29181900360200190a17fc847aefe15b8c362079c92928a3e12ebd56db092163d17840586ffe616ce7d346004604051610f03919061319d565b335f90815260046020526040812060020154819060ff16611db95760405162461bcd60e51b815260206004820152601360248201527f4e6f20636f6d6d69746d656e7420666f756e640000000000000000000000000060448201526064016108de565b5050335f90815260046020526040902080546001909101549091565b6003805f5460ff166004811115611dee57611dee613175565b14611e285760405162461bcd60e51b815260206004820181905260248201525f5160206137355f395f51905f5260448201526064016108de565b335f9081526004602052604090206002015460ff16611e895760405162461bcd60e51b815260206004820152601360248201527f4e6f20636f6d6d69746d656e7420666f756e640000000000000000000000000060448201526064016108de565b335f90815260046020526040902060020154610100900460ff1615611ef05760405162461bcd60e51b815260206004820152601860248201527f546f6b656e7320616c726561647920616c6c6f6361746564000000000000000060448201526064016108de565b335f908152600460205260408082208151600280825260608201909352909291816020016020820280368337019050508254909150815f81518110611f3757611f37613507565b6020908102919091010152600182015481600181518110611f5a57611f5a613507565b60209081029190910101525f611f7782631bc0284f60e21b6127de565b335f818152601360205260409081902083905551919250907fa99197145c2b8c502f87661a053add98114c619a877efb9ec9ff5c6722bdd4be90611fbe9084815260200190565b60405180910390a250505050565b600854831461201d5760405162461bcd60e51b815260206004820152601260248201527f496e76616c69642072657175657374204944000000000000000000000000000060448201526064016108de565b60025f5460ff16600481111561203557612035613175565b146120725760405162461bcd60e51b815260206004820152600d60248201526c496e76616c696420706861736560981b60448201526064016108de565b61207d838383612832565b5f5f8380602001905181019061209391906135bf565b67ffffffffffffffff808316600a819055908216600b8190559294509092505f916120bd916134c2565b90505f811161210e5760405162461bcd60e51b815260206004820152600e60248201527f4e6f206265747320706c6163656400000000000000000000000000000000000060448201526064016108de565b80600a54670de0b6b3a764000061212591906134ab565b61212f91906134d5565b600c819055600a54600f819055600b5460108190555f805460ff191660031790556040805192835260208301919091528101919091527f294cc6f944a6fc386abfc8447af1167ccef216d8609e4a61b7f6237c9ad3545c9060600160405180910390a17fc847aefe15b8c362079c92928a3e12ebd56db092163d17840586ffe616ce7d3460036040516121c2919061319d565b60405180910390a1505050505050565b5f60035f5460ff1660048111156121eb576121eb613175565b10156121f85750600c5490565b5f601054600f5461220991906134c2565b9050805f03612219575f91505090565b80600f54670de0b6b3a764000061223091906134ab565b61223a91906134d5565b91505090565b6003805f5460ff16600481111561225957612259613175565b146122935760405162461bcd60e51b815260206004820181905260248201525f5160206137355f395f51905f5260448201526064016108de565b5f83116122e25760405162461bcd60e51b815260206004820152601960248201527f4d7573742073656c6c20706f73697469766520616d6f756e740000000000000060448201526064016108de565b335f908152600e60205260409020548311156123405760405162461bcd60e51b815260206004820152601660248201527f496e73756666696369656e74204e4f20746f6b656e730000000000000000000060448201526064016108de565b5f601054600f5461235191906134ab565b90505f8460105461236291906134c2565b90505f61236f82846134d5565b90505f81600f5461238091906134f4565b9050858110156123c65760405162461bcd60e51b81526020600482015260116024820152700a6d8d2e0e0c2ceca40e8dede40d0d2ced607b1b60448201526064016108de565b5f81116124155760405162461bcd60e51b815260206004820152601a60248201527f496e73756666696369656e74206f757470757420616d6f756e7400000000000060448201526064016108de565b600f8290556010839055335f908152600e60205260408120805489929061243d9084906134f4565b90915550506040515f90339083908381818185875af1925050503d805f8114612481576040519150601f19603f3d011682016040523d82523d5f602084013e612486565b606091505b50509050806124cd5760405162461bcd60e51b8152602060048201526013602482015272115512081d1c985b9cd9995c8819985a5b1959606a1b60448201526064016108de565b604080515f8152602081018a905290810183905233907f50c9eb3abc4da49e4eaab0135f0099f40cf9f7f992d5a5a7a1ba8e56bcb47cb7906060016116a5565b5f5461010090046001600160a01b0316331461256b5760405162461bcd60e51b815260206004820152601860248201527f4f6e6c79206f776e65722063616e2063616c6c2074686973000000000000000060448201526064016108de565b5f805f5460ff16600481111561258357612583613175565b146125bd5760405162461bcd60e51b815260206004820181905260248201525f5160206137355f395f51905f5260448201526064016108de565b60025442101561260f5760405162461bcd60e51b815260206004820152601b60248201527f436f6d6d69746d656e7420706572696f64206e6f7420656e646564000000000060448201526064016108de565b60055461265e5760405162461bcd60e51b815260206004820152600f60248201527f4e6f207061727469636970616e7473000000000000000000000000000000000060448201526064016108de565b6126675f61289b565b6006556126735f61289b565b6007555f5b600554811015612747575f6005828154811061269657612696613507565b5f9182526020808320909101546001600160a01b0316808352600490915260408220805460018281015493955091939092918391906126de906126d8906128b1565b856128c0565b90505f6126ea836128ee565b90505f6126f6836128ee565b90505f61270386846128fa565b90505f61271087846128fa565b905061271e60065483612928565b60065560075461272e9082612928565b6007555050600190980197506126789650505050505050565b50612753600654612811565b5061275f600754612811565b5060098054600160ff1991821681179092555f805490911690911781556040517fe92be885bfedbfc5b78745092770c1a607c143a6c5b0c14eab136440bd2f0cd59190a17fc847aefe15b8c362079c92928a3e12ebd56db092163d17840586ffe616ce7d3460016040516127d3919061319d565b60405180910390a150565b5f6127ea83835f612956565b9392505050565b5f6127ea83836002612a71565b92915050565b5f6127ea83836005612a71565b5f61281c8230612b7e565b5090565b5f61282b8383612b7e565b5090919050565b5f61283c84612bf4565b90505f61284a828585612cc5565b90508061286a5760405163cf6c44e960e01b815260040160405180910390fd5b60405185907f1af0453083661051f6e56e5c070792320652e612154bf9af8637bb1e7655b99d905f90a25050505050565b5f6127fe8267ffffffffffffffff166005612d9e565b5f6127fe8260ff166002612d9e565b5f826128d2576128cf5f6128b1565b92505b816128e3576128e05f6128b1565b91505b6127ea83835f612e48565b5f6127fe826005612f18565b5f8261290c576129095f61289b565b92505b8161291d5761291a5f61289b565b91505b6127ea83835f612f7a565b5f8261293a576129375f61289b565b92505b8161294b576129485f61289b565b91505b6127ea83835f613004565b7f878245876662ba28a480c5ea71726db859fb50222b0a3d7cbbc21cfa336faf0080545f5160206137555f395f51905f528054604051637d6e912360e11b81529293926001600160a01b039091169063fadd2246906129b9908990600401613613565b5f604051808303815f87803b1580156129d0575f5ffd5b505af11580156129e2573d5f5f3e3d5ffd5b5050506002820154604051633263b83b60e01b81526001600160a01b039091169150633263b83b908690612a1e9087908b908b90600401613625565b5f604051808303818588803b158015612a35575f5ffd5b505af1158015612a47573d5f5f3e3d5ffd5b5050505050612a56838761308e565b8154825f612a638361356f565b919050555050509392505050565b7f9e7b61f58c47dc699ac88507c4f5bb9f121c03808c5676a8078fe583e46497015460405163196d0b9b60e01b81525f915f5160206137555f395f51905f52916001600160a01b039091169063196d0b9b90612ad7908890339089908990600401613666565b6020604051808303815f875af1158015612af3573d5f5f3e3d5ffd5b505050506040513d601f19601f82011682018060405250810190612b17919061369c565b8154604051630f8e573b60e21b8152600481018390523360248201529193506001600160a01b031690633e395cec906044015f604051808303815f87803b158015612b60575f5ffd5b505af1158015612b72573d5f5f3e3d5ffd5b50505050509392505050565b5f5f5160206137555f395f51905f528054604051635ca4b5b160e11b8152600481018690526001600160a01b03858116602483015292935091169063b9496b62906044015f604051808303815f87803b158015612bd9575f5ffd5b505af1158015612beb573d5f5f3e3d5ffd5b50505050505050565b5f8181527f878245876662ba28a480c5ea71726db859fb50222b0a3d7cbbc21cfa336faf0160205260408120546060917f878245876662ba28a480c5ea71726db859fb50222b0a3d7cbbc21cfa336faf00919003612c655760405163d66ca67560e01b815260040160405180910390fd5b5f83815260018201602090815260409182902080548351818402810184019094528084529091830182828015612cb857602002820191905f5260205f20905b815481526020019060010190808311612ca4575b5050505050915050919050565b5f5f83516020612cd591906134c2565b612ce09060206134c2565b90505f8482604051602001612cf69291906136b3565b60405160208183030381529060405290505f612d1c5f5160206137555f395f51905f5290565b60038101546040516378542ead60e01b81529192506001600160a01b0316906378542ead90612d53908a9086908a906004016136cd565b6020604051808303815f875af1158015612d6f573d5f5f3e3d5ffd5b505050506040513d601f19601f82011682018060405250810190612d939190613705565b979650505050505050565b7f9e7b61f58c47dc699ac88507c4f5bb9f121c03808c5676a8078fe583e464970154604051639cd07acb60e01b81525f915f5160206137555f395f51905f52916001600160a01b0390911690639cd07acb90612e009087908790600401613720565b6020604051808303815f875af1158015612e1c573d5f5f3e3d5ffd5b505050506040513d601f19601f82011682018060405250810190612e40919061369c565b949350505050565b5f5f8215612e5b5750600160f81b612e5e565b505f5b7f9e7b61f58c47dc699ac88507c4f5bb9f121c03808c5676a8078fe583e4649701546040516303056db360e31b815260048101879052602481018690526001600160f81b0319831660448201525f5160206137555f395f51905f52916001600160a01b03169063182b6d98906064015b6020604051808303815f875af1158015612eea573d5f5f3e3d5ffd5b505050506040513d601f19601f82011682018060405250810190612f0e919061369c565b9695505050505050565b7f9e7b61f58c47dc699ac88507c4f5bb9f121c03808c5676a8078fe583e4649701546040516307227b9160e21b81525f915f5160206137555f395f51905f52916001600160a01b0390911690631c89ee4490612e009087908790600401613720565b5f5f8215612f8d5750600160f81b612f90565b505f5b7f9e7b61f58c47dc699ac88507c4f5bb9f121c03808c5676a8078fe583e464970154604051630afe14ad60e31b815260048101879052602481018690526001600160f81b0319831660448201525f5160206137555f395f51905f52916001600160a01b0316906357f0a56890606401612ece565b5f5f82156130175750600160f81b61301a565b505f5b7f9e7b61f58c47dc699ac88507c4f5bb9f121c03808c5676a8078fe583e46497015460405163022f65e760e31b815260048101879052602481018690526001600160f81b0319831660448201525f5160206137555f395f51905f52916001600160a01b03169063117b2f3890606401612ece565b5f8281527f878245876662ba28a480c5ea71726db859fb50222b0a3d7cbbc21cfa336faf0160205260409020547f878245876662ba28a480c5ea71726db859fb50222b0a3d7cbbc21cfa336faf0090156130fb57604051633f06d22b60e01b815260040160405180910390fd5b5f8381526001820160209081526040909120835161311b92850190613121565b50505050565b828054828255905f5260205f2090810192821561315a579160200282015b8281111561315a57825182559160200191906001019061313f565b5061281c9291505b8082111561281c575f8155600101613162565b634e487b7160e01b5f52602160045260245ffd5b6005811061319957613199613175565b9052565b602081016127fe8284613189565b5f602082840312156131bb575f5ffd5b5035919050565b61012081016131d1828c613189565b602082019990995260408101979097526060870195909552608086019390935260a085019190915260c0840152151560e0830152151561010090910152919050565b5f60208284031215613223575f5ffd5b81356001600160a01b03811681146127ea575f5ffd5b5f5f83601f840112613249575f5ffd5b50813567ffffffffffffffff811115613260575f5ffd5b602083019150836020828501011115613277575f5ffd5b9250929050565b5f5f5f5f5f5f60808789031215613293575f5ffd5b8635955060208701359450604087013567ffffffffffffffff8111156132b7575f5ffd5b6132c389828a01613239565b909550935050606087013567ffffffffffffffff8111156132e2575f5ffd5b6132ee89828a01613239565b979a9699509497509295939492505050565b5f5f60408385031215613311575f5ffd5b50508035926020909101359150565b634e487b7160e01b5f52604160045260245ffd5b5f82601f830112613343575f5ffd5b813567ffffffffffffffff81111561335d5761335d613320565b604051601f8201601f19908116603f0116810167ffffffffffffffff8111828210171561338c5761338c613320565b6040528181528382016020018510156133a3575f5ffd5b816020850160208301375f918101602001919091529392505050565b5f5f5f606084860312156133d1575f5ffd5b83359250602084013567ffffffffffffffff8111156133ee575f5ffd5b6133fa86828701613334565b925050604084013567ffffffffffffffff811115613416575f5ffd5b61342286828701613334565b9150509250925092565b5f81518084528060208401602086015e5f602082860101526020601f19601f83011685010191505092915050565b602081525f6127ea602083018461342c565b8015158114613479575f5ffd5b50565b5f6020828403121561348c575f5ffd5b81356127ea8161346c565b634e487b7160e01b5f52601160045260245ffd5b80820281158282048414176127fe576127fe613497565b808201808211156127fe576127fe613497565b5f826134ef57634e487b7160e01b5f52601260045260245ffd5b500490565b818103818111156127fe576127fe613497565b634e487b7160e01b5f52603260045260245ffd5b805167ffffffffffffffff81168114613532575f5ffd5b919050565b5f5f60408385031215613548575f5ffd5b825160ff81168114613558575f5ffd5b91506135666020840161351b565b90509250929050565b5f6001820161358057613580613497565b5060010190565b600181811c9082168061359b57607f821691505b6020821081036135b957634e487b7160e01b5f52602260045260245ffd5b50919050565b5f5f604083850312156135d0575f5ffd5b6135588361351b565b5f8151808452602084019350602083015f5b828110156136095781518652602095860195909101906001016135eb565b5093949350505050565b602081525f6127ea60208301846135d9565b838152606060208201525f61363d60608301856135d9565b905063ffffffff60e01b83166040830152949350505050565b6054811061319957613199613175565b8481526001600160a01b0384166020820152608060408201525f61368d608083018561342c565b90506108866060830184613656565b5f602082840312156136ac575f5ffd5b5051919050565b5f83518060208601845e9190910191825250602001919050565b606081525f6136df60608301866135d9565b82810360208401526136f1818661342c565b90508281036040840152612f0e818561342c565b5f60208284031215613715575f5ffd5b81516127ea8161346c565b828152604081016127ea602083018461365656fe496e76616c696420706861736520666f722074686973206f7065726174696f6e9e7b61f58c47dc699ac88507c4f5bb9f121c03808c5676a8078fe583e4649700a164736f6c634300081b000a",
  "devdoc": {
    "details": "Uses Zama fhEVM for homomorphic encryption with async decryption via Gateway",
    "kind": "dev",
    "methods": {
      "aggregateBets()": {
        "details": "Only callable by owner after commitment deadline"
      },
      "buyNoTokens(uint256)": {
        "params": {
          "minTokensOut": "Minimum tokens to receive (slippage protection)"
        }
      },
      "buyYesTokens(uint256)": {
        "params": {
          "minTokensOut": "Minimum tokens to receive (slippage protection)"
        }
      },
      "callbackAggregateDecryption(uint256,bytes,bytes)": {
        "details": "Called by the decryption oracle with decrypted values",
        "params": {
          "cleartexts": "ABI-encoded decrypted values",
          "decryptionProof": "KMS signatures and proof data",
          "requestId": "The request ID from requestDecryption"
        }
      },
      "callbackTokenAllocation(uint256,bytes,bytes)": {
        "details": "Called by the decryption oracle to allocate tokens to a user"
      },
      "claimRewards()": {
        "details": "Winners receive their proportional share of the total pool"
      },
      "commitPrediction(bytes32,bytes32,bytes,bytes)": {
        "params": {
          "amountProof": "Zero-knowledge proof for the amount",
          "encryptedAmount": "Encrypted bet amount in wei",
          "encryptedPrediction": "Encrypted prediction (0 = NO, 1 = YES)",
          "predictionProof": "Zero-knowledge proof for the prediction"
        }
      },
      "constructor": {
        "params": {
          "_commitmentDuration": "Duration of the blind commitment phase (in seconds)",
          "_eventDescription": "Description of the event to predict",
          "_eventDuration": "Duration until the event occurs (in seconds)"
        }
      },
      "getCurrentPrice()": {
        "returns": {
          "price": "Current price scaled by 1e18"
        }
      },
      "getMyCommitment()": {
        "returns": {
          "amount": "Encrypted amount",
          "prediction": "Encrypted prediction"
        }
      },
      "getNoBuyQuote(uint256)": {
        "params": {
          "ethIn": "Amount of ETH to spend"
        },
        "returns": {
          "tokensOut": "Amount of NO tokens that would be received"
        }
      },
      "getNoSellQuote(uint256)": {
        "params": {
          "tokenAmount": "Amount of NO tokens to sell"
        },
        "returns": {
          "ethOut": "Amount of ETH that would be received"
        }
      },
      "getYesBuyQuote(uint256)": {
        "params": {
          "ethIn": "Amount of ETH to spend"
        },
        "returns": {
          "tokensOut": "Amount of YES tokens that would be received"
        }
      },
      "getYesSellQuote(uint256)": {
        "params": {
          "tokenAmount": "Amount of YES tokens to sell"
        },
        "returns": {
          "ethOut": "Amount of ETH that would be received"
        }
      },
      "requestAggregateDecryption()": {
        "details": "This initiates async decryption through the KMS"
      },
      "requestTokenAllocation()": {
        "details": "Users must call this after price discovery to get their YES/NO tokens"
      },
      "sellNoTokens(uint256,uint256)": {
        "params": {
          "minEthOut": "Minimum ETH to receive (slippage protection)",
          "tokenAmount": "Amount of NO tokens to sell"
        }
      },
      "sellYesTokens(uint256,uint256)": {
        "params": {
          "minEthOut": "Minimum ETH to receive (slippage protection)",
          "tokenAmount": "Amount of YES tokens to sell"
        }
      },
      "settleMarket(bool)": {
        "params": {
          "outcome": "The final outcome: true = YES won, false = NO won"
        }
      }
    },
    "title": "BlindOracle - Privacy-Preserving Prediction Market",
    "version": 1
  },
  "userdoc": {
    "errors": {
      "HandlesAlreadySavedForRequestID()": [
        {
          "notice": "Returned if some handles were already saved for corresponding ID."
        }
      ],
      "InvalidKMSSignatures()": [
        {
          "notice": "Returned if the returned KMS signatures are not valid."
        }
      ],
      "NoHandleFoundForRequestID()": [
        {
          "notice": "Returned if there was not handle found for the requested ID."
        }
      ]
    },
    "events": {
      "DecryptionFulfilled(uint256)": {
        "notice": "This event is emitted when requested decryption has been fulfilled."
      }
    },
    "kind": "user",
    "methods": {
      "K_MULTIPLIER()": {
        "notice": "Constant product k for AMM"
      },
      "aggregateBets()": {
        "notice": "Step 1: Aggregate all encrypted bets using FHE operations"
      },
      "allocatedCount()": {
        "notice": "Counter for processed allocations"
      },
      "buyNoTokens(uint256)": {
        "notice": "Buy NO tokens using constant product AMM"
      },
      "buyYesTokens(uint256)": {
        "notice": "Buy YES tokens using constant product AMM"
      },
      "callbackAggregateDecryption(uint256,bytes,bytes)": {
        "notice": "Callback function for aggregate decryption results"
      },
      "callbackTokenAllocation(uint256,bytes,bytes)": {
        "notice": "Callback function for token allocation decryption"
      },
      "claimRewards()": {
        "notice": "Claim rewards after settlement"
      },
      "commitPrediction(bytes32,bytes32,bytes,bytes)": {
        "notice": "Submit an encrypted prediction and bet amount"
      },
      "commitmentDeadline()": {
        "notice": "Deadline for blind commitment phase"
      },
      "constructor": {
        "notice": "Create a new prediction market"
      },
      "currentPhase()": {
        "notice": "Current market phase"
      },
      "eventDeadline()": {
        "notice": "Deadline for the event (after which settlement can occur)"
      },
      "eventDescription()": {
        "notice": "Event description"
      },
      "finalOutcome()": {
        "notice": "Final outcome: true = YES won, false = NO won"
      },
      "getBalance()": {
        "notice": "Get contract balance"
      },
      "getCurrentPrice()": {
        "notice": "Get current market price (YES probability)"
      },
      "getMarketInfo()": {
        "notice": "Get market info"
      },
      "getMyCommitment()": {
        "notice": "Get my encrypted commitment (only callable by the user who committed)"
      },
      "getNoBuyQuote(uint256)": {
        "notice": "Get quote for buying NO tokens"
      },
      "getNoSellQuote(uint256)": {
        "notice": "Get quote for selling NO tokens"
      },
      "getParticipant(uint256)": {
        "notice": "Get participant address by index"
      },
      "getParticipantCount()": {
        "notice": "Get number of participants"
      },
      "getUserBalances(address)": {
        "notice": "Get user's token balances"
      },
      "getYesBuyQuote(uint256)": {
        "notice": "Get quote for buying YES tokens"
      },
      "getYesSellQuote(uint256)": {
        "notice": "Get quote for selling YES tokens"
      },
      "hasClaimed(address)": {
        "notice": "Track if user has claimed rewards"
      },
      "hasTokensAllocated(address)": {
        "notice": "Check if user's tokens have been allocated"
      },
      "hasUserCommitted(address)": {
        "notice": "Check if user has committed"
      },
      "initialPrice()": {
        "notice": "Initial price after price discovery (scaled by 1e18)"
      },
      "isAggregated()": {
        "notice": "Whether aggregation has been completed"
      },
      "isSettled()": {
        "notice": "Whether the market has been settled"
      },
      "noTokenBalance(address)": {
        "notice": "NO token balance for each user"
      },
      "owner()": {
        "notice": "Market owner (can trigger phase transitions and settlement)"
      },
      "participants(uint256)": {
        "notice": "List of all participants"
      },
      "requestAggregateDecryption()": {
        "notice": "Step 2: Request decryption of aggregated totals via Gateway"
      },
      "requestTokenAllocation()": {
        "notice": "Request token allocation for a user based on their encrypted commitment"
      },
      "reserveNo()": {
        "notice": "AMM reserve for NO tokens"
      },
      "reserveYes()": {
        "notice": "AMM reserve for YES tokens"
      },
      "sellNoTokens(uint256,uint256)": {
        "notice": "Sell NO tokens back to the AMM"
      },
      "sellYesTokens(uint256,uint256)": {
        "notice": "Sell YES tokens back to the AMM"
      },
      "settleMarket(bool)": {
        "notice": "Settle the market with the final outcome"
      },
      "totalNoAmount()": {
        "notice": "Total amount bet on NO (decrypted)"
      },
      "totalYesAmount()": {
        "notice": "Total amount bet on YES (decrypted)"
      },
      "yesTokenBalance(address)": {
        "notice": "YES token balance for each user"
      }
    },
    "notice": "A production-ready prediction market with three phases: Blind Commitment, Price Discovery, and Free Trading",
    "version": 1
  },
  "storageLayout": {
    "storage": [
      {
        "astId": 39061,
        "contract": "contracts/BlindOracle.sol:BlindOracle",
        "label": "currentPhase",
        "offset": 0,
        "slot": "0",
        "type": "t_enum(Phase)39045"
      },
      {
        "astId": 39064,
        "contract": "contracts/BlindOracle.sol:BlindOracle",
        "label": "owner",
        "offset": 1,
        "slot": "0",
        "type": "t_address"
      },
      {
        "astId": 39067,
        "contract": "contracts/BlindOracle.sol:BlindOracle",
        "label": "eventDescription",
        "offset": 0,
        "slot": "1",
        "type": "t_string_storage"
      },
      {
        "astId": 39070,
        "contract": "contracts/BlindOracle.sol:BlindOracle",
        "label": "commitmentDeadline",
        "offset": 0,
        "slot": "2",
        "type": "t_uint256"
      },
      {
        "astId": 39073,
        "contract": "contracts/BlindOracle.sol:BlindOracle",
        "label": "eventDeadline",
        "offset": 0,
        "slot": "3",
        "type": "t_uint256"
      },
      {
        "astId": 39079,
        "contract": "contracts/BlindOracle.sol:BlindOracle",
        "label": "commitments",
        "offset": 0,
        "slot": "4",
        "type": "t_mapping(t_address,t_struct(Commitment)39057_storage)"
      },
      {
        "astId": 39083,
        "contract": "contracts/BlindOracle.sol:BlindOracle",
        "label": "participants",
        "offset": 0,
        "slot": "5",
        "type": "t_array(t_address)dyn_storage"
      },
      {
        "astId": 39087,
        "contract": "contracts/BlindOracle.sol:BlindOracle",
        "label": "encryptedTotalYes",
        "offset": 0,
        "slot": "6",
        "type": "t_userDefinedValueType(euint64)40913"
      },
      {
        "astId": 39091,
        "contract": "contracts/BlindOracle.sol:BlindOracle",
        "label": "encryptedTotalNo",
        "offset": 0,
        "slot": "7",
        "type": "t_userDefinedValueType(euint64)40913"
      },
      {
        "astId": 39094,
        "contract": "contracts/BlindOracle.sol:BlindOracle",
        "label": "aggregateDecryptionRequestId",
        "offset": 0,
        "slot": "8",
        "type": "t_uint256"
      },
      {
        "astId": 39097,
        "contract": "contracts/BlindOracle.sol:BlindOracle",
        "label": "isAggregated",
        "offset": 0,
        "slot": "9",
        "type": "t_bool"
      },
      {
        "astId": 39100,
        "contract": "contracts/BlindOracle.sol:BlindOracle",
        "label": "totalYesAmount",
        "offset": 0,
        "slot": "10",
        "type": "t_uint256"
      },
      {
        "astId": 39103,
        "contract": "contracts/BlindOracle.sol:BlindOracle",
        "label": "totalNoAmount",
        "offset": 0,
        "slot": "11",
        "type": "t_uint256"
      },
      {
        "astId": 39106,
        "contract": "contracts/BlindOracle.sol:BlindOracle",
        "label": "initialPrice",
        "offset": 0,
        "slot": "12",
        "type": "t_uint256"
      },
      {
        "astId": 39111,
        "contract": "contracts/BlindOracle.sol:BlindOracle",
        "label": "yesTokenBalance",
        "offset": 0,
        "slot": "13",
        "type": "t_mapping(t_address,t_uint256)"
      },
      {
        "astId": 39116,
        "contract": "contracts/BlindOracle.sol:BlindOracle",
        "label": "noTokenBalance",
        "offset": 0,
        "slot": "14",
        "type": "t_mapping(t_address,t_uint256)"
      },
      {
        "astId": 39119,
        "contract": "contracts/BlindOracle.sol:BlindOracle",
        "label": "reserveYes",
        "offset": 0,
        "slot": "15",
        "type": "t_uint256"
      },
      {
        "astId": 39122,
        "contract": "contracts/BlindOracle.sol:BlindOracle",
        "label": "reserveNo",
        "offset": 0,
        "slot": "16",
        "type": "t_uint256"
      },
      {
        "astId": 39129,
        "contract": "contracts/BlindOracle.sol:BlindOracle",
        "label": "isSettled",
        "offset": 0,
        "slot": "17",
        "type": "t_bool"
      },
      {
        "astId": 39132,
        "contract": "contracts/BlindOracle.sol:BlindOracle",
        "label": "finalOutcome",
        "offset": 1,
        "slot": "17",
        "type": "t_bool"
      },
      {
        "astId": 39137,
        "contract": "contracts/BlindOracle.sol:BlindOracle",
        "label": "hasClaimed",
        "offset": 0,
        "slot": "18",
        "type": "t_mapping(t_address,t_bool)"
      },
      {
        "astId": 39142,
        "contract": "contracts/BlindOracle.sol:BlindOracle",
        "label": "tokenAllocationRequestIds",
        "offset": 0,
        "slot": "19",
        "type": "t_mapping(t_address,t_uint256)"
      },
      {
        "astId": 39145,
        "contract": "contracts/BlindOracle.sol:BlindOracle",
        "label": "allocatedCount",
        "offset": 0,
        "slot": "20",
        "type": "t_uint256"
      }
    ],
    "types": {
      "t_address": {
        "encoding": "inplace",
        "label": "address",
        "numberOfBytes": "20"
      },
      "t_array(t_address)dyn_storage": {
        "base": "t_address",
        "encoding": "dynamic_array",
        "label": "address[]",
        "numberOfBytes": "32"
      },
      "t_bool": {
        "encoding": "inplace",
        "label": "bool",
        "numberOfBytes": "1"
      },
      "t_enum(Phase)39045": {
        "encoding": "inplace",
        "label": "enum BlindOracle.Phase",
        "numberOfBytes": "1"
      },
      "t_mapping(t_address,t_bool)": {
        "encoding": "mapping",
        "key": "t_address",
        "label": "mapping(address => bool)",
        "numberOfBytes": "32",
        "value": "t_bool"
      },
      "t_mapping(t_address,t_struct(Commitment)39057_storage)": {
        "encoding": "mapping",
        "key": "t_address",
        "label": "mapping(address => struct BlindOracle.Commitment)",
        "numberOfBytes": "32",
        "value": "t_struct(Commitment)39057_storage"
      },
      "t_mapping(t_address,t_uint256)": {
        "encoding": "mapping",
        "key": "t_address",
        "label": "mapping(address => uint256)",
        "numberOfBytes": "32",
        "value": "t_uint256"
      },
      "t_string_storage": {
        "encoding": "bytes",
        "label": "string",
        "numberOfBytes": "32"
      },
      "t_struct(Commitment)39057_storage": {
        "encoding": "inplace",
        "label": "struct BlindOracle.Commitment",
        "members": [
          {
            "astId": 39049,
            "contract": "contracts/BlindOracle.sol:BlindOracle",
            "label": "encryptedPrediction",
            "offset": 0,
            "slot": "0",
            "type": "t_userDefinedValueType(euint8)40899"
          },
          {
            "astId": 39052,
            "contract": "contracts/BlindOracle.sol:BlindOracle",
            "label": "encryptedAmount",
            "offset": 0,
            "slot": "1",
            "type": "t_userDefinedValueType(euint64)40913"
          },
          {
            "astId": 39054,
            "contract": "contracts/BlindOracle.sol:BlindOracle",
            "label": "hasCommitted",
            "offset": 0,
            "slot": "2",
            "type": "t_bool"
          },
          {
            "astId": 39056,
            "contract": "contracts/BlindOracle.sol:BlindOracle",
            "label": "tokensAllocated",
            "offset": 1,
            "slot": "2",
            "type": "t_bool"
          }
        ],
        "numberOfBytes": "96"
      },
      "t_uint256": {
        "encoding": "inplace",
        "label": "uint256",
        "numberOfBytes": "32"
      },
      "t_userDefinedValueType(euint64)40913": {
        "encoding": "inplace",
        "label": "euint64",
        "numberOfBytes": "32"
      },
      "t_userDefinedValueType(euint8)40899": {
        "encoding": "inplace",
        "label": "euint8",
        "numberOfBytes": "32"
      }
    }
  }
}